{
  "contractName": "PRA",
  "abi": [
    {
      "constant": true,
      "inputs": [],
      "name": "pra",
      "outputs": [
        {
          "name": "",
          "type": "address"
        }
      ],
      "payable": false,
      "stateMutability": "view",
      "type": "function"
    },
    {
      "constant": true,
      "inputs": [
        {
          "name": "",
          "type": "uint256"
        }
      ],
      "name": "targheLUT",
      "outputs": [
        {
          "name": "",
          "type": "string"
        }
      ],
      "payable": false,
      "stateMutability": "view",
      "type": "function"
    },
    {
      "constant": true,
      "inputs": [
        {
          "name": "",
          "type": "string"
        }
      ],
      "name": "registro",
      "outputs": [
        {
          "name": "targa",
          "type": "string"
        },
        {
          "name": "proprietario",
          "type": "address"
        },
        {
          "name": "prezzo",
          "type": "uint256"
        },
        {
          "name": "inVendita",
          "type": "bool"
        },
        {
          "name": "registrata",
          "type": "bool"
        }
      ],
      "payable": false,
      "stateMutability": "view",
      "type": "function"
    },
    {
      "constant": true,
      "inputs": [],
      "name": "numeroAuto",
      "outputs": [
        {
          "name": "",
          "type": "uint256"
        }
      ],
      "payable": false,
      "stateMutability": "view",
      "type": "function"
    },
    {
      "inputs": [],
      "payable": false,
      "stateMutability": "nonpayable",
      "type": "constructor"
    },
    {
      "anonymous": false,
      "inputs": [
        {
          "indexed": false,
          "name": "targa",
          "type": "string"
        },
        {
          "indexed": false,
          "name": "proprietario",
          "type": "address"
        }
      ],
      "name": "Registrazione",
      "type": "event"
    },
    {
      "anonymous": false,
      "inputs": [
        {
          "indexed": false,
          "name": "compratore",
          "type": "address"
        },
        {
          "indexed": false,
          "name": "venditore",
          "type": "address"
        },
        {
          "indexed": false,
          "name": "prezzo",
          "type": "uint256"
        }
      ],
      "name": "Acquisto",
      "type": "event"
    },
    {
      "anonymous": false,
      "inputs": [
        {
          "indexed": false,
          "name": "targa",
          "type": "string"
        },
        {
          "indexed": false,
          "name": "prezzo",
          "type": "uint256"
        }
      ],
      "name": "MessaInVendita",
      "type": "event"
    },
    {
      "anonymous": false,
      "inputs": [
        {
          "indexed": false,
          "name": "targa",
          "type": "string"
        }
      ],
      "name": "NonInVendita",
      "type": "event"
    },
    {
      "constant": false,
      "inputs": [
        {
          "name": "targa",
          "type": "string"
        },
        {
          "name": "proprietario",
          "type": "address"
        }
      ],
      "name": "nuovaImmatricolazione",
      "outputs": [],
      "payable": false,
      "stateMutability": "nonpayable",
      "type": "function"
    },
    {
      "constant": false,
      "inputs": [
        {
          "name": "targa",
          "type": "string"
        },
        {
          "name": "prezzo",
          "type": "uint256"
        }
      ],
      "name": "mettiInVendita",
      "outputs": [],
      "payable": false,
      "stateMutability": "nonpayable",
      "type": "function"
    },
    {
      "constant": false,
      "inputs": [
        {
          "name": "targa",
          "type": "string"
        }
      ],
      "name": "togliDallaVendita",
      "outputs": [],
      "payable": false,
      "stateMutability": "nonpayable",
      "type": "function"
    },
    {
      "constant": false,
      "inputs": [
        {
          "name": "targa",
          "type": "string"
        }
      ],
      "name": "acquista",
      "outputs": [],
      "payable": true,
      "stateMutability": "payable",
      "type": "function"
    },
    {
      "constant": false,
      "inputs": [],
      "name": "chiudi",
      "outputs": [],
      "payable": false,
      "stateMutability": "nonpayable",
      "type": "function"
    }
  ],
  "bytecode": "0x6080604052600060025534801561001557600080fd5b50336000806101000a81548173ffffffffffffffffffffffffffffffffffffffff021916908373ffffffffffffffffffffffffffffffffffffffff160217905550611dd0806100656000396000f3fe6080604052600436106100a3576000357c01000000000000000000000000000000000000000000000000000000009004806363f8de411161007657806363f8de4114610356578063656112d0146104e7578063d56b555f146105b9578063ded19077146105d0578063fe028186146105fb576100a3565b80631728b1d8146100a85780632a1f8fd6146101905780633ff29923146101e757806359e2de421461029b575b600080fd5b3480156100b457600080fd5b5061018e600480360360408110156100cb57600080fd5b81019080803590602001906401000000008111156100e857600080fd5b8201836020820111156100fa57600080fd5b8035906020019184600183028401116401000000008311171561011c57600080fd5b91908080601f016020809104026020016040519081016040528093929190818152602001838380828437600081840152601f19601f820116905080830192505050505050509192919290803573ffffffffffffffffffffffffffffffffffffffff1690602001909291905050506106c3565b005b34801561019c57600080fd5b506101a5610ad8565b604051808273ffffffffffffffffffffffffffffffffffffffff1673ffffffffffffffffffffffffffffffffffffffff16815260200191505060405180910390f35b3480156101f357600080fd5b506102206004803603602081101561020a57600080fd5b8101908080359060200190929190505050610afd565b6040518080602001828103825283818151815260200191508051906020019080838360005b83811015610260578082015181840152602081019050610245565b50505050905090810190601f16801561028d5780820380516001836020036101000a031916815260200191505b509250505060405180910390f35b610354600480360360208110156102b157600080fd5b81019080803590602001906401000000008111156102ce57600080fd5b8201836020820111156102e057600080fd5b8035906020019184600183028401116401000000008311171561030257600080fd5b91908080601f016020809104026020016040519081016040528093929190818152602001838380828437600081840152601f19601f820116905080830192505050505050509192919290505050610bb6565b005b34801561036257600080fd5b5061041c6004803603602081101561037957600080fd5b810190808035906020019064010000000081111561039657600080fd5b8201836020820111156103a857600080fd5b803590602001918460018302840111640100000000831117156103ca57600080fd5b91908080601f016020809104026020016040519081016040528093929190818152602001838380828437600081840152601f19601f8201169050808301925050505050505091929192905050506112c1565b60405180806020018673ffffffffffffffffffffffffffffffffffffffff1673ffffffffffffffffffffffffffffffffffffffff1681526020018581526020018415151515815260200183151515158152602001828103825287818151815260200191508051906020019080838360005b838110156104a857808201518184015260208101905061048d565b50505050905090810190601f1680156104d55780820380516001836020036101000a031916815260200191505b50965050505050505060405180910390f35b3480156104f357600080fd5b506105b76004803603604081101561050a57600080fd5b810190808035906020019064010000000081111561052757600080fd5b82018360208201111561053957600080fd5b8035906020019184600183028401116401000000008311171561055b57600080fd5b91908080601f016020809104026020016040519081016040528093929190818152602001838380828437600081840152601f19601f820116905080830192505050505050509192919290803590602001909291905050506113df565b005b3480156105c557600080fd5b506105ce6117d1565b005b3480156105dc57600080fd5b506105e56118b0565b6040518082815260200191505060405180910390f35b34801561060757600080fd5b506106c16004803603602081101561061e57600080fd5b810190808035906020019064010000000081111561063b57600080fd5b82018360208201111561064d57600080fd5b8035906020019184600183028401116401000000008311171561066f57600080fd5b91908080601f016020809104026020016040519081016040528093929190818152602001838380828437600081840152601f19601f8201169050808301925050505050505091929192905050506118b6565b005b6000809054906101000a900473ffffffffffffffffffffffffffffffffffffffff1673ffffffffffffffffffffffffffffffffffffffff163373ffffffffffffffffffffffffffffffffffffffff1614610768576040517f08c379a0000000000000000000000000000000000000000000000000000000008152600401808060200182810382526024815260200180611d336024913960400191505060405180910390fd5b6001826040518082805190602001908083835b6020831061079e578051825260208201915060208101905060208303925061077b565b6001836020036101000a038019825116818451168082178552505050505050905001915050908152602001604051809103902060030160019054906101000a900460ff1615610855576040517f08c379a00000000000000000000000000000000000000000000000000000000081526004018080602001828103825260188152602001807f4c274175746f6d6f62696c6520657369737465206769c3a0000000000000000081525060200191505060405180910390fd5b6040518060a001604052808381526020018273ffffffffffffffffffffffffffffffffffffffff16815260200160008152602001600015158152602001600115158152506001836040518082805190602001908083835b602083106108cf57805182526020820191506020810190506020830392506108ac565b6001836020036101000a0380198251168184511680821785525050505050509050019150509081526020016040518091039020600082015181600001908051906020019061091e929190611bb9565b5060208201518160010160006101000a81548173ffffffffffffffffffffffffffffffffffffffff021916908373ffffffffffffffffffffffffffffffffffffffff1602179055506040820151816002015560608201518160030160006101000a81548160ff02191690831515021790555060808201518160030160016101000a81548160ff02191690831515021790555090505060038290806001815401808255809150509060018203906000526020600020016000909192909190915090805190602001906109f0929190611c39565b50506002600081548092919060010191905055507fb0e71641fc3803f3408e90bbb9b62789ee96fe78af40541f1f1e6bd08bd94baa828260405180806020018373ffffffffffffffffffffffffffffffffffffffff1673ffffffffffffffffffffffffffffffffffffffff168152602001828103825284818151815260200191508051906020019080838360005b83811015610a99578082015181840152602081019050610a7e565b50505050905090810190601f168015610ac65780820380516001836020036101000a031916815260200191505b50935050505060405180910390a15050565b6000809054906101000a900473ffffffffffffffffffffffffffffffffffffffff1681565b60038181548110610b0a57fe5b906000526020600020016000915090508054600181600116156101000203166002900480601f016020809104026020016040519081016040528092919081815260200182805460018160011615610100020316600290048015610bae5780601f10610b8357610100808354040283529160200191610bae565b820191906000526020600020905b815481529060010190602001808311610b9157829003601f168201915b505050505081565b6000809054906101000a900473ffffffffffffffffffffffffffffffffffffffff1673ffffffffffffffffffffffffffffffffffffffff163373ffffffffffffffffffffffffffffffffffffffff161415610c5c576040517f08c379a0000000000000000000000000000000000000000000000000000000008152600401808060200182810382526028815260200180611d0b6028913960400191505060405180910390fd5b6001816040518082805190602001908083835b60208310610c925780518252602082019150602081019050602083039250610c6f565b6001836020036101000a038019825116818451168082178552505050505050905001915050908152602001604051809103902060030160019054906101000a900460ff16610d2b576040517f08c379a0000000000000000000000000000000000000000000000000000000008152600401808060200182810382526022815260200180611d576022913960400191505060405180910390fd5b600115156001826040518082805190602001908083835b60208310610d655780518252602082019150602081019050602083039250610d42565b6001836020036101000a038019825116818451168082178552505050505050905001915050908152602001604051809103902060030160009054906101000a900460ff16151514610e1e576040517f08c379a000000000000000000000000000000000000000000000000000000000815260040180806020018281038252600e8152602001807f4e6f6e20696e2076656e6469746100000000000000000000000000000000000081525060200191505060405180910390fd5b3373ffffffffffffffffffffffffffffffffffffffff166001826040518082805190602001908083835b60208310610e6b5780518252602082019150602081019050602083039250610e48565b6001836020036101000a038019825116818451168082178552505050505050905001915050908152602001604051809103902060010160009054906101000a900473ffffffffffffffffffffffffffffffffffffffff1673ffffffffffffffffffffffffffffffffffffffff161415610f2f576040517f08c379a000000000000000000000000000000000000000000000000000000000815260040180806020018281038252602c815260200180611d79602c913960400191505060405180910390fd5b346001826040518082805190602001908083835b60208310610f665780518252602082019150602081019050602083039250610f43565b6001836020036101000a03801982511681845116808217855250505050505090500191505090815260200160405180910390206002015414611010576040517f08c379a000000000000000000000000000000000000000000000000000000000815260040180806020018281038252600d8152602001807f5072657a7a6f2065727261746f0000000000000000000000000000000000000081525060200191505060405180910390fd5b600033905060006001836040518082805190602001908083835b6020831061104d578051825260208201915060208101905060208303925061102a565b6001836020036101000a038019825116818451168082178552505050505050905001915050908152602001604051809103902060010160009054906101000a900473ffffffffffffffffffffffffffffffffffffffff169050816001846040518082805190602001908083835b602083106110dd57805182526020820191506020810190506020830392506110ba565b6001836020036101000a038019825116818451168082178552505050505050905001915050908152602001604051809103902060010160006101000a81548173ffffffffffffffffffffffffffffffffffffffff021916908373ffffffffffffffffffffffffffffffffffffffff16021790555060006001846040518082805190602001908083835b602083106111895780518252602082019150602081019050602083039250611166565b6001836020036101000a038019825116818451168082178552505050505050905001915050908152602001604051809103902060030160006101000a81548160ff0219169083151502179055508073ffffffffffffffffffffffffffffffffffffffff166108fc349081150290604051600060405180830381858888f1935050505015801561121c573d6000803e3d6000fd5b507fb11a9e6ebf8391472885eee834e9ec970074f7dd99b799e13ef3ef363d05b5e4828234604051808473ffffffffffffffffffffffffffffffffffffffff1673ffffffffffffffffffffffffffffffffffffffff1681526020018373ffffffffffffffffffffffffffffffffffffffff1673ffffffffffffffffffffffffffffffffffffffff168152602001828152602001935050505060405180910390a1505050565b600181805160208101820180518482526020830160208501208183528095505050505050600091509050806000018054600181600116156101000203166002900480601f0160208091040260200160405190810160405280929190818152602001828054600181600116156101000203166002900480156113835780601f1061135857610100808354040283529160200191611383565b820191906000526020600020905b81548152906001019060200180831161136657829003601f168201915b5050505050908060010160009054906101000a900473ffffffffffffffffffffffffffffffffffffffff16908060020154908060030160009054906101000a900460ff16908060030160019054906101000a900460ff16905085565b6001826040518082805190602001908083835b6020831061141557805182526020820191506020810190506020830392506113f2565b6001836020036101000a038019825116818451168082178552505050505050905001915050908152602001604051809103902060030160019054906101000a900460ff166114ae576040517f08c379a0000000000000000000000000000000000000000000000000000000008152600401808060200182810382526022815260200180611d576022913960400191505060405180910390fd5b3373ffffffffffffffffffffffffffffffffffffffff166001836040518082805190602001908083835b602083106114fb57805182526020820191506020810190506020830392506114d8565b6001836020036101000a038019825116818451168082178552505050505050905001915050908152602001604051809103902060010160009054906101000a900473ffffffffffffffffffffffffffffffffffffffff1673ffffffffffffffffffffffffffffffffffffffff16146115be576040517f08c379a000000000000000000000000000000000000000000000000000000000815260040180806020018281038252602c815260200180611cdf602c913960400191505060405180910390fd5b670de0b6b3a764000081026001836040518082805190602001908083835b602083106115ff57805182526020820191506020810190506020830392506115dc565b6001836020036101000a038019825116818451168082178552505050505050905001915050908152602001604051809103902060020181905550600180836040518082805190602001908083835b60208310611670578051825260208201915060208101905060208303925061164d565b6001836020036101000a038019825116818451168082178552505050505050905001915050908152602001604051809103902060030160006101000a81548160ff0219169083151502179055507f1a6f0e3f6cdcb00bb07e594cd3291835137166615f9cd86af861ad9e6ebfe126826001846040518082805190602001908083835b6020831061171557805182526020820191506020810190506020830392506116f2565b6001836020036101000a0380198251168184511680821785525050505050509050019150509081526020016040518091039020600201546040518080602001838152602001828103825284818151815260200191508051906020019080838360005b83811015611792578082015181840152602081019050611777565b50505050905090810190601f1680156117bf5780820380516001836020036101000a031916815260200191505b50935050505060405180910390a15050565b6000809054906101000a900473ffffffffffffffffffffffffffffffffffffffff1673ffffffffffffffffffffffffffffffffffffffff163373ffffffffffffffffffffffffffffffffffffffff1614611876576040517f08c379a0000000000000000000000000000000000000000000000000000000008152600401808060200182810382526024815260200180611d336024913960400191505060405180910390fd5b6000809054906101000a900473ffffffffffffffffffffffffffffffffffffffff1673ffffffffffffffffffffffffffffffffffffffff16ff5b60025481565b6001816040518082805190602001908083835b602083106118ec57805182526020820191506020810190506020830392506118c9565b6001836020036101000a038019825116818451168082178552505050505050905001915050908152602001604051809103902060030160019054906101000a900460ff16611985576040517f08c379a0000000000000000000000000000000000000000000000000000000008152600401808060200182810382526022815260200180611d576022913960400191505060405180910390fd5b3373ffffffffffffffffffffffffffffffffffffffff166001826040518082805190602001908083835b602083106119d257805182526020820191506020810190506020830392506119af565b6001836020036101000a038019825116818451168082178552505050505050905001915050908152602001604051809103902060010160009054906101000a900473ffffffffffffffffffffffffffffffffffffffff1673ffffffffffffffffffffffffffffffffffffffff1614611a95576040517f08c379a000000000000000000000000000000000000000000000000000000000815260040180806020018281038252602c815260200180611cdf602c913960400191505060405180910390fd5b60006001826040518082805190602001908083835b60208310611acd5780518252602082019150602081019050602083039250611aaa565b6001836020036101000a038019825116818451168082178552505050505050905001915050908152602001604051809103902060030160006101000a81548160ff0219169083151502179055507ff1c3e3506e162d583755dee4162728ed35639fc48ede480b9d4da4e614257335816040518080602001828103825283818151815260200191508051906020019080838360005b83811015611b7c578082015181840152602081019050611b61565b50505050905090810190601f168015611ba95780820380516001836020036101000a031916815260200191505b509250505060405180910390a150565b828054600181600116156101000203166002900490600052602060002090601f016020900481019282601f10611bfa57805160ff1916838001178555611c28565b82800160010185558215611c28579182015b82811115611c27578251825591602001919060010190611c0c565b5b509050611c359190611cb9565b5090565b828054600181600116156101000203166002900490600052602060002090601f016020900481019282601f10611c7a57805160ff1916838001178555611ca8565b82800160010185558215611ca8579182015b82811115611ca7578251825591602001919060010190611c8c565b5b509050611cb59190611cb9565b5090565b611cdb91905b80821115611cd7576000816000905550600101611cbf565b5090565b9056fe536f6c6f20696c2070726f70726965746172696f207075c3b2206d65747465726520696e2076656e64697461496c20505241206e6f6e207075c3b220656666657474756172652071756573746120617a696f6e65536f6c6f20696c2050524120656666657474756172652071756573746120617a696f6e654c274175746f20726963686965737461206e6f6e20c3a82072656769737472617461536f6c6f20636869206e6f6e20c3a82070726f70726965746172696f207075c3b22061637175697374617265a165627a7a72305820a7cffad4d1e2bbb2f0f1a7d24b0b701b5c1c3f5d77ba52d5e32f0ca8750db1de0029",
  "source": "pragma solidity ^0.5.7; \n\n\ncontract PRA {\n    \n    address payable public pra;\n    \n    struct Automobile {\n        string targa;\n        address payable proprietario;\n        uint prezzo;\n        bool inVendita;\n        bool registrata;\n    }\n    \n    uint constant oneEther = 1 ether;\n    \n    mapping (string => Automobile) public registro;\n    uint public numeroAuto = 0;\n    string[] public targheLUT;\n    event Registrazione(string targa, address proprietario);\n    event Acquisto(address compratore, address venditore, uint prezzo);\n    event MessaInVendita(string targa, uint prezzo);\n    event NonInVendita(string targa);\n    \n    constructor () public {\n        pra = msg.sender;\n    }\n    \n    modifier soloPra () {\n        require(msg.sender == pra, \"Solo il PRA effettuare questa azione\");\n        _;\n    }\n    \n    modifier noPra() {\n        require(msg.sender != pra, \"Il PRA non può effettuare questa azione\");\n        _;\n    }\n    \n    function nuovaImmatricolazione(string memory targa, address payable proprietario) public soloPra {\n        require(!registro[targa].registrata, \"L'Automobile esiste già\");\n        registro[targa] = Automobile(targa, proprietario, 0, false, true);\n        targheLUT.push(targa);\n        numeroAuto++;\n        emit Registrazione(targa, proprietario);\n    }\n    \n    function mettiInVendita(string memory targa, uint prezzo) public {\n        require(registro[targa].registrata, \"L'Auto richiesta non è registrata\");\n        require(registro[targa].proprietario == msg.sender, \"Solo il proprietario può mettere in vendita\");\n        registro[targa].prezzo = prezzo * oneEther;\n        registro[targa].inVendita = true;\n        emit MessaInVendita(targa, registro[targa].prezzo);\n    }\n    \n    function togliDallaVendita(string memory targa) public {\n        require(registro[targa].registrata, \"L'Auto richiesta non è registrata\");\n        require(registro[targa].proprietario == msg.sender, \"Solo il proprietario può mettere in vendita\");\n        registro[targa].inVendita = false;\n        emit NonInVendita(targa);\n    }\n    \n    function acquista(string memory targa) public payable noPra {\n        require(registro[targa].registrata, \"L'Auto richiesta non è registrata\");\n        require(registro[targa].inVendita == true, \"Non in vendita\");\n        require(registro[targa].proprietario != msg.sender, \"Solo chi non è proprietario può acquistare\");\n        require(registro[targa].prezzo == msg.value, \"Prezzo errato\");\n        address payable compratore = msg.sender;\n        address payable venditore = registro[targa].proprietario;\n        registro[targa].proprietario = compratore;\n        registro[targa].inVendita = false;\n        venditore.transfer(msg.value);\n        emit Acquisto(compratore, venditore, msg.value);\n    }\n\n    function chiudi() public soloPra {\n        selfdestruct(pra);\n    }\n    \n}\n",
  "sourcePath": "/Users/biagio/repos/siena-2019-bc-sc/dApp_PRA/contracts/PRA.sol",
  "compiler": {
    "name": "solc",
    "version": "0.5.7+commit.6da8b019.Emscripten.clang"
  },
  "schemaVersion": "3.0.3",
  "updatedAt": "2019-05-02T12:56:58.118Z",
  "devdoc": {
    "methods": {}
  },
  "userdoc": {
    "methods": {}
  }
}